:100000000080202035080000D1080000D108000041
:1000100000000000000000000000000000000000E0
:10002000000000000000000000000000D1080000F7
:100030000000000000000000D1080000D10800000E
:10004000D1080000D1080000D1080000D10800004C
:10005000D1080000D1080000D1080000D10800003C
:1000600000000000D1080000D108000000000000DE
:1000700000000000D1080000D1080000D1080000F5
:10008000D1080000D1080000D1080000D10800000C
:10009000D1080000D10800000000000000000000AE
:1000A000D1080000D108000000000000000000009E
:1000B000D108000000000000D1080000D1080000B5
:1000C000402292029A1A92467047C046174B002B64
:1000D00000D1134B9D46FFF7F3FF00218B460F46DF
:1000E0001348144A121A00F00BFC0E4B002B00D0E0
:1000F00098470D4B002B00D09847002000210400AA
:100100000D000D48002802D00C4800E000BF00F0B0
:10011000FFFB2000290000F0EBF800F0DDFBC046FB
:100120000000080000000000000000000080202007
:1001300060002020B8012020000000000000000026
:10014000002243088B4274D303098B425FD3030A16
:100150008B4244D3030B8B4228D3030C8B420DD329
:10016000FF22090212BA030C8B4202D312120902B7
:1001700065D0030B8B4219D300E0090AC30B8B42F5
:1001800001D3CB03C01A5241830B8B4201D38B03A3
:10019000C01A5241430B8B4201D34B03C01A524148
:1001A000030B8B4201D30B03C01A5241C30A8B428B
:1001B00001D3CB02C01A5241830A8B4201D38B0276
:1001C000C01A5241430A8B4201D34B02C01A52411A
:1001D000030A8B4201D30B02C01A5241CDD2C3098C
:1001E0008B4201D3CB01C01A524183098B4201D308
:1001F0008B01C01A524143098B4201D34B01C01AF3
:10020000524103098B4201D30B01C01A5241C3086A
:100210008B4201D3CB00C01A524183088B4201D3D9
:100220008B00C01A524143088B4201D34B00C01AC5
:100230005241411A00D20146524110467047FFE731
:1002400001B5002000F006F802BDC0460029F7D035
:1002500076E770477047C0460448054B10B58342A7
:1002600003D0044B002B00D0984710BD6000202025
:10027000600020200000000006480749091A8B1082
:10028000C90FC91810B5491003D0044B002B00D07A
:10029000984710BD60002020600020200000000072
:1002A00010B5074C2378002B09D1FFF7D5FF054B7C
:1002B000002B02D0044800E000BF0123237010BDD2
:1002C0006000202000000000680B0000054B10B506
:1002D000002B03D00449054800E000BFFFF7CCFF26
:1002E00010BDC0460000000064002020680B000024
:1002F00080B500AF00F083F9024B180000F038FB26
:10030000FAE7C0460024F40080B586B000AFF8607C
:10031000B9607A60FB681B687B617B68DA437B6944
:1003200013407B61BB687A681A407B691A43FB689B
:100330001A60C046BD4606B080BD000080B582B0E0
:1003400000AF0200FB1D1A700449FB1D1B78044A14
:100350008B50C046BD4602B080BDC04600F00A408A
:100360000813000080B582B000AF0200FB1D1A70B8
:10037000064B882252019818FB1D1B780322190096
:10038000FFF7C2FFC046BD4602B080BD00F00A4084
:1003900080B500AF024A034BD3581800BD4680BD5C
:1003A00000F00A400412000080B500AF054A064B79
:1003B000D3580449802252001343034A8B50C0464D
:1003C000BD4680BD00F00A400811000080B582B033
:1003D00000AF0200FB1D1A70064B074A9818FB1D60
:1003E0001B7830221900FFF78FFFC046BD4602B0D0
:1003F00080BDC04600F00A400411000080B500AF87
:10040000054A064BD3580449054A1340034A8B500A
:10041000C046BD4680BDC04600F00A40081100003D
:10042000FFFEFFFF80B582B000AF0200BB1D1A8047
:10043000064B074A9818BB1D1B88F02212011900B1
:10044000FFF762FFC046BD4602B080BD00F00A4023
:100450000411000080B500AF024A034BD3581800C6
:10046000BD4680BD00F00A405011000080B500AFCD
:10047000034A044B0449D150C046BD4680BDC04626
:1004800000F00A402C1300000100000E80B500AF00
:10049000FFF77EFF020080239B0413409B01DB0FCC
:1004A000DBB21800BD4680BD80B582B000AF786079
:1004B000064B074A94466344F822520579681800AF
:1004C000FFF722FFC046BD4602B080BD00F00A40E3
:1004D0003811000080B582B000AF78607A68802360
:1004E0001B010349D150C046BD4602B080BDC04685
:1004F0000100002680B582B000AF78607B68034AB7
:1005000003499950C046BD4602B080BD04080000B2
:10051000030000B180B582B000AF7860054A7B6807
:100520009B00D318043381221A60C046BD4602B036
:1005300080BDC0460080424080B584B000AFF86006
:10054000B9607A603B60BA687B681A433B681A43BB
:10055000B96980235B050B4013430E490E4A1A43C9
:10056000FB689B00CB1804331A600A4AFB689B00A7
:10057000D31804331A68B96980231B050B40054959
:100580001A43FB689B00CB1804331A60C046BD4673
:1005900004B080BD008042408100040080B582B07C
:1005A00000AF786039607A6895235B013968D15073
:1005B000C046BD4602B080BD80B582B000AF786055
:1005C00039607B6803493A685A50C046BD4602B05C
:1005D00080BDC046D012000080B582B000AF786008
:1005E0007A68A0235B01D35801221A4311007A686C
:1005F000A0235B01D150C046BD4602B080BD80B58E
:1006000000AF00F007F800F021F800F0DDF8C04678
:10061000BD4680BD80B500AF0A4B1800FFF76AFFEA
:10062000094B1800FFF766FF064B1800FFF752FF53
:10063000054B1800FFF74EFF102000F099F9C04657
:10064000BD4680BD00000A4000200A4080B592B03F
:1006500002AF1C4B1800FFF7BFFF1B4B1800FFF742
:10066000BBFF3A00194B1000190039231A0000F0A3
:1006700073F90023FB6310E03A00FB6BD3181B787F
:10068000180080231B038022920200210091002188
:10069000FFF752FFFB6B0133FB63FB6B382BEBD98E
:1006A0000020FFF737FF074B01211800FFF776FF07
:1006B000044B01211800FFF77FFFC046BD4610B074
:1006C00080BDC04600000A4000200A40000B000028
:1006D00080B586B000AF1723FB1800221A700020E7
:1006E000FFF7E2FE8023DA0280235B03190000207B
:1006F00000F0E8F900233B61FFF7B8FE09E02F4B5B
:10070000180000F035F93B6901333B613B69412B2F
:1007100009D8FFF7BBFE03001A0001235340DBB2E8
:10072000002BECD100E0C046FFF794FE0300FB6015
:1007300080235A0280235B031900002000F0C2F9D5
:1007400000233B61FFF792FE09E01C4B180000F00C
:100750000FF93B6901333B613B69412B09D8FFF736
:1007600095FE03001A0001235340DBB2002BECD1AD
:1007700000E0C046FFF76EFE0300BB60FA6813009E
:100780005B019B1A9B009B18DB00B9681800FFF700
:10079000D7FC03007B607B68094A934207D97B68DA
:1007A000084A934203D81723FB1801221A70172313
:1007B000FB181B781800BD4606B080BDD1030000B1
:1007C000BC090000CB09000080B500AF0020FFF796
:1007D000B5FD80239B001800FFF724FE0020FFF7E3
:1007E000C1FD134B180000F0C9F80EE0FFF706FE3C
:1007F000FFF7DAFDC046FFF7CBFD020080239B0028
:100800001A4080239B009A42F5D1FFF761FF030055
:100810001A0001235340DBB2002BE7D11020FFF771
:10082000D5FD002000F030F9C046BD4680BDC04671
:10083000400B000080B584B000AF1D4BFB601D4B2A
:10084000BB6007E0FA68131DFB60BB68191DB96047
:1008500012681A60BA68184B9A42F3D3174BFB60C0
:10086000174BBB6007E0FA68131DFB60BB68191DDE
:10087000B96012681A60BA68124B9A42F3D3124BED
:100880007B60124B3B6005E07B6800221A607B684E
:1008900004337B607A683B689A42F5D300F038F8FD
:1008A000FFF726FD00F014F8C046BD4604B080BD39
:1008B000780B00000000202060002020000B0000CA
:1008C000000020200000202060002020B80120200F
:1008D00080B500AFC046FDE7074B10B50400002B04
:1008E00002D0002100E000BF044B1B68002B00D0A9
:1008F0009847200000F03AF800000000B4012020E2
:1009000003008218934200D1704719700133F9E750
:1009100070B500260C4C0D4D641BA410A64209D1E5
:10092000002600F0DDF80A4C0A4D641BA410A64214
:1009300005D170BDB300EB5898470136EEE7B30020
:10094000EB5898470136F2E7680B0000680B00008F
:100950006C0B0000680B0000002310B59A4200D118
:1009600010BDCC5CC4540133F8E70000FEE7C0467C
:10097000831E043BC046FCD27047C046F0B5D64645
:100980004F4646463649374A374C5358C0B5234040
:1009900053508021354CC90113590B42FCD001231F
:1009A0003349447E0D686C4023406B400B6020232C
:1009B000304CC55C26681D3B75402B40734023605E
:1009C000982307262C4D5B01EF5899463E4005279A
:1009D000EF50476AB2463E68B0464346274E9351B1
:1009E0007B68274F5646D3514B46EE50FE26C369CF
:1009F0002568F6011B0233406B403340F0266B4004
:100A000023600569C36836032B4345690C682B4393
:100A1000057E2B4305682D0435402B4345688068CF
:100A20002D072D0C2B43F02500022D0128400343F8
:100A300014486340034063400B60802308495B0017
:100A400050580343535080220648084992004358A7
:100A50001342FCD01CBC90469946A246F0BDC0464D
:100A60000811000000F00A40FFFEFFFF0412000022
:100A700020010B4024010B400000404028110000E1
:100A80002C11000072FF0F0080210A4A0A4B8903D3
:100A9000D0500A4813580B42FCD0802308495B020F
:100AA00050580343535010220248044943581A42F5
:100AB000FCD0704700F00A400C1100000412000046
:100AC0000411000011430143FC20044B10B51C68C5
:100AD0008003614001406140196010BD38010B4046
:100AE000F8B5C046F8BC08BC9E4670470000000040
:100AF000F8B5C046A1020000F8BC08BC9E4670478D
:100B00001D1E1F20212223242526272A2B2C2D2E93
:100B10002F303132333435363738393A3B0102031E
:100B20000405060708090A0B0C0D0E0F101112130D
:100B30001415161718191A1B1C00000000000000DD
:100B400001000000000000000000000000000000A4
:100B5000000000001000000000000000090000007C
:080B6000010000002C00C4415B
:040B6800CD020000BA
:080B700050F5FF7F01000000B9
:100B78000000000000000000030000007C002020AE
:100B880014002020000000007C002020E400202029
:100B98004C012020000000000000000000000000C0
:100BA800000000000000000000000000000000003D
:100BB800000000000000000000000000000000002D
:100BC800000000000000000000000000000000001D
:0200000441C0F9
:1000000001000000BBAABBAABBAABBAAFFFFFFFF5F
:10001000FFFFFFFFFFFFFFFFFFFFFFFFFFFFBBAA89
:10002000BBAABBAAFFFFFFFFFFFFFFFFFFFFFFFF12
:10003000FFFFFFFFFFFFFFFFFFFFFFFFFFFFFFFFD0
:10004000FFFFFFFFFFFFFFFFFFFFFFFFFFFFFFFFC0
:10005000FFFFFFFFFFFFFFFFFFFFFFFFC3DA79187E
:10010000010000001602150201030203A812FFFFFE
:10011000FFFFFFFFFFFFFFFFFFFFFFFFFFFFFFFFEF
:10012000FFFFFFFFFFFFFFFFFFFFFFFFFFFFFFFFDF
:10013000FFFFFFFFFFFFFFFFFFFFFFFFFFFFFFFFCF
:10014000FFFFFFFFFFFFFFFFFFFFFFFFFFFFFFFFBF
:08015000FFFF480016F47D0FCB
:04000003000000C039
:00000001FF
